:020000040800F2
:1000000070040020490100081F1000082D0F00088F
:100010001D100008B5010008DF11000800000000F5
:100020000000000000000000000000002310000895
:10003000B70100080000000021100008251000088A
:100040006301000863010008630100086301000800
:1000500063010008630100086301000863010008F0
:1000600063010008630100086301000863010008E0
:1000700063010008630100086301000863010008D0
:1000800063010008630100086301000863010008C0
:1000900063010008630100086301000863010008B0
:1000A00063010008630100086301000863010008A0
:1000B000630100088910000863010008630100085B
:1000C0006301000863010008630100086301000880
:1000D0006301000863010008630100086301000870
:1000E0006301000863010008630100086301000860
:1000F0006301000863010008630100086301000850
:10010000630100086301000863010008630100083F
:10011000630100086301000863010008630100082F
:10012000630100086301000863010008630100081F
:10013000DFF810D000F02CF800480047211200082A
:10014000AFF300807004002006488047064800474F
:10015000FEE7FEE7FEE7FEE7FEE7FEE7FEE7FEE777
:10016000FEE7FEE78710000831010008D2B201E087
:1001700000F8012B491EFBD270470022F6E710B5AC
:1001800013460A4604461946FFF7F0FF204610BD05
:10019000064C074D06E0E06840F0010394E80700D4
:1001A00098471034AC42F6D3FFF7C6FF841200081C
:1001B000A4120008FEE770472DE9F84FDFF8C89158
:1001C000002409F1040A0AF1040B23460F270BF15E
:1001D000040ED1E00125A54006EA0502AA4276D127
:1001E000DFF8A8C14E68A6EB0C0866452BD00DDCE5
:1001F000032E34D005DC36B3012E19D0022E2FD1B8
:100200001BE0112E16D0122E2AD119E0B8F5881F46
:1002100019D006DCB8F5803F15D0B8F5801F1FD186
:1002200011E0B8F5001F0ED0B8F5041F18D10AE090
:10023000CB6815E0CB681B1D12E0CB6808330FE0DC
:10024000CB680C330CE08B682BB1012B4FF008030B
:1002500003D0456104E0042302E0056100E00023CF
:10026000FF2A01D8064601E000F104064FEA8405A2
:1002700001D9A5F12005D6F8008007FA05FC28EA87
:100280000C0803FA05F548EA0508C6F800804D6831
:10029000ED0070D53E4DAE6946F00106AE61AD6928
:1002A00024F0030605F0010500953A4D06EB050C18
:1002B000DCF80850A607360F07FA06F825EA080505
:1002C000DFF8D480404503D14FF0000825E052E02C
:1002D000DFF8C880404502D14FF001081DE0DFF88B
:1002E000C080404502D14FF0020816E0DFF8B4802C
:1002F000404502D14FF003080FE0DFF8AC804045E5
:1003000002D14FF0040808E0DFF8A080404502D198
:100310004FF0050801E04FF0060808FA06F848EA31
:100320000508CCF808804D68D9F80060ED034D460B
:1003300001D5164300E096432E604D68DAF8006060
:10034000AD03554601D5164300E096432E604D6837
:10035000DBF80060ED025D4601D5164300E09643F0
:100360002E604D68DEF80060AD02754601D516437B
:1003700000E096432E60641C0A681646E2407FF453
:1003800029AFBDE8F88F0000000401400000111003
:10039000001002400000014000080140000C014034
:1003A000001001400014014000180140001C0140F1
:1003B0000AB1016170470904FBE700000148806849
:1003C000704700001800002002488168027811443C
:1003D0008160704718000020074810B5016841F09F
:1003E00010010160032000F073F8002000F006F80F
:1003F00000F024F8002010BD0020024070B50D4D23
:1004000004464FF47A712878B1FBF0F00A49096884
:10041000B1FBF0F000F0CAFA48B9102C07D2002264
:100420002146501E00F034F800206C6070BD0120A1
:1004300070BD000018000020240000200B4808B503
:10044000816941F001018161816901F0010100913F
:10045000C16941F08051C161C06900F080500090D5
:100460000348416821F0E061416008BD001002408E
:1004700000000140002809DB00F01F02012191402B
:100480004009800000F1E020C0F800117047000032
:10049000F0B40E4B1B680C46C3F30223C3F10705EF
:1004A000042D00D90425191D072901D2002300E0DD
:1004B000DB1E012606FA05F1491E214099409E40A7
:1004C000761E16403143F0BC00F08ABE0CED00E011
:1004D000064900F0070208684FF6FF03184040EA9B
:1004E0000220034A10430860704700000CED00E052
:1004F0000000FA052DE9F0470F46050061D0434E94
:10050000306800F00700B84209D2306820F00700D8
:1005100038433060306800F00700B84251D1286895
:100520003B4C810712D5400703D5606840F4E0607A
:1005300060602878000703D5606840F46050606010
:100540006068A96820F0F000084360602878C00760
:1005500028D06868012810D02168022810D08907A7
:1005600000292EDA616821F0030101436160FFF781
:1005700025FF804641F288390DE021688903EFE7C5
:100580008901EDE7FFF71AFFA0EB0801494502D901
:100590000320BDE8F0876068696800F00C00B0EBEC
:1005A000810FEFD1306800F00700B8420BD93068F6
:1005B00020F0070038433060306800F00700B84290
:1005C00001D00120E5E72878400705D56068E96893
:1005D00020F4E060084360602878000706D5606872
:1005E000296920F4605040EAC100606000F018F80A
:1005F0006168084AC1F30311515CC84006490860AC
:1006000006480068FFF7FAFE0020C2E7002002401B
:100610000010024074120008240000201C0000207A
:1006200012A185B00FC98DE80F0014A0144A00680C
:1006300004905168134801F00C03042B10D0082BD0
:100640000ED1C1F38343C9031DF803000AD55168D5
:1006500004AAC1F34041515C0A4A5043B0FBF1F097
:1006600005B0704708494843FAE700000203040553
:10067000060708090A0B0C0D0E0F101001020000EE
:100680000010024000127A0000093D002DE9F84FE9
:10069000040070D02078C04DC00749D06868C0F30E
:1006A0008100012807D06868C0F38100022809D1C1
:1006B0006868C00306D52868800339D560680028BB
:1006C000E7D035E06068B0F5803F0BD010B1B0F5F1
:1006D000A02F11D0286820F480302860286820F4EA
:1006E000802002E0286840F480302860606890B183
:1006F000FFF764FE06460AE0286840F48020286080
:10070000F0E700BFFFF75AFE801B642873D8286803
:100710008003F7D50CE0FFF751FE064605E000BF69
:10072000FFF74CFE801B6428F0D828688003F7D4BC
:1007300020789A4E80074FF001094FF0000839D514
:10074000686810F00C0F07D06868C0F381000228B9
:1007500009D16868C00306D42868800714D52069C9
:10076000012808D110E02069B0B1C6F80090FFF769
:1007700025FE074605E00AE1FFF720FEC01B022820
:10078000C4D828688007F7D52868616920F0F80088
:1007900040EAC10028600DE0C6F80080FFF70EFEB9
:1007A000074604E0FFF70AFEC01B022823D828688A
:1007B0008007F7D4207800072CD57948A169D9B1F2
:1007C000C0F80090FFF7FAFD074604E0FFF7F6FDDA
:1007D000C01B02280FD8686A8007F7D571484FF40C
:1007E000FA510068B0FBF1F0009000BF0098411E84
:1007F0000091FAD20EE080E0C0F80080FFF7DEFD45
:10080000074604E0FFF7DAFDC01B022875D8686AC6
:100810008007F7D42078400760D5E8690027C0003A
:1008200008D4E86940F08050E861E869012700F0E9
:10083000805000905C480168C90513D40168834664
:1008400041F480710160FFF7B9FD824606E000BF08
:10085000FFF7B4FDA0EB0A0064284ED8DBF80000D7
:10086000C005F5D5E06801280AD008B1052813D0E5
:10087000286A20F001002862286A20F0040002E0C3
:10088000286A40F001002862E06841F2883B98B194
:10089000FFF794FD82460BE0286A40F004002862CE
:1008A000EEE700BFFFF78AFDA0EB0A0159455AD8D1
:1008B000286A8007F6D50CE0FFF780FD824605E048
:1008C000FFF77CFDA0EB0A0159454CD8286A800748
:1008D000F6D41FB1E86920F08050E861E06988B380
:1008E0006968C1F38101022944D00228C6F86080FA
:1008F00004D0FFF763FD044638E034E0FFF75EFD07
:10090000074604E0FFF75AFDC01B02282BD82868D1
:100910008001F7D4206AB0F5803F05D16868A168EE
:1009200020F4003008436860D4E90801084369688E
:1009300021F4741108436860C6F86090FFF73EFD2B
:10094000044606E025E000BFFFF738FD001B022843
:1009500009D828688001F7D51BE000BFFFF72EFDFE
:10096000001B022802D90320BDE8F88F2868800107
:10097000F4D40EE00128F7D06868226A00F48031D0
:10098000914204D1616A00F47010884201D00120C4
:10099000EAE70020E8E700000010024000004242C1
:1009A00080044242240000200070004010B5401E28
:1009B000B0F1807F01D3012010BD4FF0E0246061D1
:1009C0000F21601700F00CFC0020A06107202061BF
:1009D000002010BD7047704770B590F83C20012A88
:1009E0002CD0012480F83C40022280F83D2003688E
:1009F0005A689D6822F070060A6832435A60104BAC
:100A000002689A420ED00F4B9A420BD0B2F1804F3F
:100A100008D00D4B9A4205D00C4B9A4202D00C4B99
:100A20009A4204D1496825F080031943916080F807
:100A30003D40002180F83C10084670BD022070BD8A
:100A4000002C014000340140000400400008004038
:100A5000000C004070B50546007F04281AD1164CE2
:100A60002078C0B1012815D10821284600F048FAA5
:100A7000A0602A68002151626268904201D9801A00
:100A8000E06021702868016A21F400710162286821
:100A9000016A016270BD0821284600F031FA6060E9
:100AA000012020702868016A21F400710162286821
:100AB000016A41F40071ECE7000000202DE9F041EB
:100AC000054690F83C000C46012836D0012085F8F8
:100AD0003C008AB3042A42D02868082A51D0D4E9BD
:100AE0000023E168066A26F480560662C669076A32
:100AF00026F4407646EA03234FF6FF7606EA0131F4
:100B000023F4704319434FF4005627F4005306EAC8
:100B100002321A43C16102622868C16921F440614E
:100B2000C1612868C169A26841EA0221C16100204F
:100B300085F83C00BDE8F08101E00220FAE7D4E945
:100B40000012E368286800F0F9FA2868816921F04A
:100B50000C01816128688169A26811430FE0D4E922
:100B60000012E368286800F01FFB2868816921F4FF
:100B70004061816128688169A26841EA022181613E
:100B8000D5E7D4E90027267B016A21F48071016250
:100B9000C169036A21F00301394321F0F0073107ED
:100BA0004FF4007647EA116123F4007306EA02224B
:100BB0001A43C16102622868C16921F00C01C16158
:100BC0002868C169A2681143B0E710B5040003D0DA
:100BD00094F83D0010B107E0012010BD002084F81A
:100BE0003C00204600F01EF8022084F83D00211D44
:100BF000206800F04FFA012084F8460084F83E0097
:100C000084F83F0084F8400084F8410084F84200F2
:100C100084F8430084F8440084F8450084F83D00DB
:100C2000002010BD00B585B0002100910191029116
:100C3000039100681649884228D11648C16941F0DD
:100C40000201C161C16901F002010491816941F0B1
:100C5000100181618069694600F0100004904FF432
:100C6000807000900C48FFF7A7FA0C48416821F407
:100C7000406141F0E06141F4406141600022114671
:100C80001D20FFF705FC1D20FFF7F4FB05B000BD9C
:100C9000000400400010024000100140000001402C
:100CA00010B5044651B104290DD0082910D094F88C
:100CB000410094F84520012811D10EE094F83E003F
:100CC00094F84220F7E794F83F0094F84320F2E7C5
:100CD00094F8400094F84420EDE7012A01D0012067
:100CE00010BD022051B1042911D0082918D084F870
:100CF000410084F845000C291BD13CE084F83E00FB
:100D000084F842002068C26842F0020210E084F8D1
:100D10003F0084F843002068C26842F0040207E004
:100D200084F8400084F844002068C26842F0080259
:100D3000C2600122206800F0F3F91149206888425E
:100D40000ED0104988420BD0B0F1804F08D00E4928
:100D5000884205D00D49884202D00D49884204D10D
:100D6000816801F00701062903D0016841F0010103
:100D70000160002010BD2068C26842F01002D7E771
:100D8000002C0140003401400004004000080040F5
:100D9000000C004070B50446006801694FF0000582
:100DA000C943890715D4C168C943890711D4E91E0D
:100DB000016101202077206880698007204602D0E9
:100DC000FFF748FE04E000F098F8204600F096F89F
:100DD000257720680169C943490717D4C168C94309
:100DE000490713D46FF004010161022020772068C5
:100DF000806910F4407F204602D0FFF72BFE04E00C
:100E000000F07BF8204600F079F82577206801692A
:100E1000C943090716D4C168C943090712D46FF042
:100E200008010161042020772068C06980072046FE
:100E300002D0FFF70FFE04E000F05FF8204600F05C
:100E40005DF8257720680169C943C90617D4C168D0
:100E5000C943C90613D46FF010010161082020773F
:100E60002068C06910F4407F204602D0FFF7F2FDF1
:100E700004E000F042F8204600F040F825772068B2
:100E80000169C943C90708D1C168C943C90704D169
:100E9000891E0161204600F032F820680169C943CB
:100EA000090609D4C168C943090605D46FF0800159
:100EB00001612046FFF78EFD20680169C94349069C
:100EC00009D4C168C943490605D46FF040010161E6
:100ED000204600F02AF820680169C94389060BD42E
:100EE000C168C943890607D46FF02001016120461B
:100EF000BDE87040FFF76FBD70BD70477047704729
:100F00000246002041B1042909D008290AD00C2941
:100F100001D11068006C70471068406B7047106812
:100F2000806B70471068C06B70477047FEE7000029
:100F300070B586B000241C48009401940294039478
:100F4000816941F020018161816901F020010491F2
:100F5000816941F010018161816901F01001049102
:100F6000816941F004018161816901F0040104910A
:100F7000816941F00801816180690C4E00F0080030
:100F80004FF400750490002229463046FFF710FA0E
:100F900001200095CDE90104022003906946304606
:100FA000FFF70AF906B070BD00100240000C0140C6
:100FB00010B586B000241848059404940094019458
:100FC00002941449039401602321C0E901144FF6EF
:100FD000FF71C0E903148461FFF7F7FD08B172B631
:100FE000FEE7049404A90C480594FFF7F5FC08B14A
:100FF00072B6FEE70120CDE900400294082269465E
:1010000005480394FFF75AFD002801D072B6FEE7A9
:1010100006B010BD0004004028000020FEE7FEE7F7
:1010200070477047FFF7D0B930B58FB028216846B8
:10103000FFF7A3F814210AA8FFF79FF8012108047D
:10104000CDE900100024029402250491CDE9075057
:101050004FF4E01009906846FFF718FB08B172B62C
:10106000FEE70F20CDE90A0580200C90C000CDE9F5
:101070000D0402210AA8FFF73DFA002801D072B63C
:10108000FEE70FB030BD70470148FFF783BE000098
:1010900028000020F0B502681C4B1D4D1D4E1E4F50
:1010A0001E4C4FF0804C984209D0A04207D06045BA
:1010B00005D0A84203D0B04201D0B84204D122F0FA
:1010C000700E4A6842EA0E02984209D0A04207D048
:1010D000604505D0A84203D0B04201D0B84203D148
:1010E00022F44075CA682A434D6922F080022A43DF
:1010F00002608A68C2620A688262984201D0A04295
:1011000001D10969016301214161F0BD002C014059
:101110000004004000080040000C00400034014082
:1011200010B501F01F030121046A99408C43046249
:10113000016A9A401143016210BD000070B5046A53
:1011400024F0010404628469056A124EB0420ED094
:10115000114EB0420BD0B0F1804F08D00F4EB042CC
:1011600005D00F4EB04202D00E4EB04203D124F053
:101170000304144301E044F001041A0724F0F004CE
:1011800044EA126225F00A0301F00A011943826160
:10119000016270BD002C0140003401400004004099
:1011A00000080040000C004030B5046A24F0100430
:1011B00004628469056A24F4407444EA022222F439
:1011C00070444FF6FF7202EA03322243A02425F056
:1011D000A00304EA011119438261016230BDFEE7F8
:1011E0000907090E002804DB00F1E02080F8001454
:1011F000704700F00F0000F1E02080F8141D7047E8
:1012000002E008C8121F08C1002AFAD170477047CF
:10121000002001E001C1121F002AFBD1704700002D
:10122000FFF7DAF8FFF700FFFFF782FEFFF7C0FED7
:1012300008210C48FFF734FD0B4F0C4C0C4D4FF4BC
:101240000076012231463846FFF7B2F8A0686422E2
:10125000B5FBF0F1616161685143B1FBF0F02061D1
:10126000EFE7000028000020000C014000000020F3
:1012700040420F00000000000000000001020304D3
:1012800006070809A412000800000020280000003A
:1012900000120008CC1200082800002048040000BA
:1012A0001012000800000000000000000000000014
:1012B000000000000000000000000000010000002D
:0C12C00010000000000000000024F400FA
:0400000508000131BD
:00000001FF
